:100000000C9464010C9431020C946F020C948101E5
:100010000C9481010C9481010C9481010C94810158
:100020000C9481010C9481010C9481010C94810148
:100030000C9481010C9481010C9481010C94810138
:100040000C94A8090C9481010C948F0A0C948101E2
:100050000C9481010C9481010C9481010C94810118
:100060000C9481010C9481010C9481010C94810108
:100070000C9481010C9481010C9481010C948101F8
:100080000C9481010C9481010C9481010C948101E8
:100090000C9481010C9481010C9481010C948101D8
:1000A0000C9481010C9481010C9481010C948101C8
:1000B0000C948101000000000081811881810007FB
:1000C000000700147F147F14242A7F2A12231308A8
:1000D000646236495522500005030000001C22418D
:1000E000000041221C0014083E081408083E0808BD
:1000F0000050300000080808080800606000002078
:10010000100804023E5149453E00427F40004261D2
:100110005149462141454B311814127F102745455E
:1001200045393C4A49493001710905033649494975
:1001300036064949291E00363600000056360000B2
:10014000081422410014141414140041221408024B
:1001500001510906324979413E7E1111117E7F49D4
:100160004949363E414141227F4141221C7F494954
:1001700049417F090909013E4149497A7F08080838
:100180007F00417F41002040413F017F0814224110
:100190007F404040407F020C027F7F0408107F3E7A
:1001A0004141413E7F090909063E4151215E7F09D7
:1001B000192946464949493101017F01013F404023
:1001C000403F1F2040201F3F4038403F6314081429
:1001D0006307087008076151494543007F414100AA
:1001E00002040810200041417F0004020102044083
:1001F00040404040000102040020545454787F489D
:100200004444383844444420384444487F385454A3
:100210005418087E0901020C5252523E7F08040411
:100220007800447D40002040443D007F1028440079
:1002300000417F40007C041804787C08040478386E
:10024000444444387C14141408081414147C7C08A6
:100250000404084854545420043F4440203C404087
:10026000207C1C2040201C3C4030403C442810286E
:10027000440C5050503C4464544C440008364100F7
:1002800000007F0000004136080010080810080038
:10029000000000001300AE013F3F012000022100DA
:1002A0007F02220007004001D30000A100C8011214
:1002B0001201817F00A400A601D58001D9C201DB13
:1002C00020018D14002E00AF11241FBECFEFD8E007
:1002D000DEBFCDBF12E0A0E0B1E0E0EBFEE102C086
:1002E00005900D92AC34B107D9F726E0ACE4B2E04A
:1002F00001C01D92A737B207E1F70E948F070C9447
:10030000560F0C940000CF93DF9300D000D0CDB7F0
:10031000DEB79C838B838B819C810E94F60E9A832F
:10032000898389819A810F900F900F900F90DF91B0
:10033000CF910895CF93DF9300D000D0CDB7DEB733
:100340009A8389837C836B8389819A812B813C8109
:10035000B9010E940A0F00000F900F900F900F90AC
:10036000DF91CF910895CF93DF9300D0CDB7DEB763
:100370009A83898300000F900F90DF91CF910895A9
:10038000CF93DF9300D000D0CDB7DEB789837B83D6
:100390006A834C838981823008F05BC08981882F11
:1003A00090E0880F991F880F991F80509F4FFC0184
:1003B00080819181835B914011F080E04BC0898105
:1003C000882F90E0009719F00197B9F032C089E6C4
:1003D00090E029E630E0F9012081322F3C7F2C812A
:1003E000232BFC0120838DE390E02DE330E0F90125
:1003F00020812160FC0120831CC089E690E029E671
:1004000030E0F9012081422F437F2C81222F30E000
:10041000220F331F220F331F242BFC0120838DE377
:1004200090E02DE330E0F90120812260FC0120837F
:1004300000008981882F90E0880F991F880F991FED
:1004400080509F4F2A813B81FC013183208381E0D2
:1004500001C080E00F900F900F900F90DF91CF912F
:1004600008951F920F9200905F000F9211242F9316
:100470003F934F935F936F937F938F939F93AF932C
:10048000BF93EF93FF93CF93DF93CDB7DEB7809108
:100490000201909103010196909303018093020160
:1004A000209100013091010180910201909103019E
:1004B000F90109950000DF91CF91FF91EF91BF9174
:1004C000AF919F918F917F916F915F914F913F91EC
:1004D0002F910F9000925F000F901F9018951F9220
:1004E0000F9200905F000F9211242F933F934F9330
:1004F0005F936F937F938F939F93AF93BF93EF938C
:10050000FF93CF93DF93CDB7DEB780910601909133
:100510000701019690930701809306012091040141
:10052000309105018091060190910701F90109952B
:100530000000DF91CF91FF91EF91BF91AF919F911B
:100540008F917F916F915F914F913F912F910F907C
:1005500000925F000F901F901895CF93DF93CDB757
:10056000DEB764970FB6F894DEBF0FBECDBF8C8B9D
:1005700084E992E09A83898389819A819C012F5F23
:100580003F4F3A8329839F838E838E819F81FC0115
:10059000849188878885882F90E09C838B838FEF58
:1005A00089870E94DD058C890E94390389878985A6
:1005B000882309F44DC0898553C089819A819C01A3
:1005C0002F5F3F4F3A8329839B878A878A859B8544
:1005D000FC0184918C878C858D8389819A819C0113
:1005E0002F5F3F4F3A8329839E878D878D859E8518
:1005F000FC0184918F878F85888B88890E9458039E
:10060000898789858823C9F089852AC089819A814B
:100610009C012F5F3F4F3A8329839A8B898B89896D
:100620009A89FC0184918B8B8B890E94580389875E
:100630008985882311F0898513C08D819FEF980FDC
:100640009D83882319F78B819C8101979C838B83E1
:100650008B819C81892B09F0B0CF0E948F0680E0AE
:1006600064960FB6F894DEBF0FBECDBFDF91CF9179
:100670000895CF93DF9300D0CDB7DEB78A838FEF95
:1006800089830E94FF0589838981882311F08981EC
:100690000AC08A810E94360689838981882311F0E5
:1006A000898101C080E00F900F90DF91CF91089574
:1006B000CF93DF9300D0CDB7DEB78A838FEF8983E6
:1006C00080E80E94630689838981882311F08981EB
:1006D0000AC08A810E94630689838981882311F078
:1006E000898101C080E00F900F90DF91CF91089534
:1006F000CF93DF9300D000D0CDB7DEB78C838FEFE0
:100700008B831A8219828C810E9439038B838B819F
:10071000882311F08B8124C080E40E9463068B83C0
:100720008B818823A9F08B811BC089819A81845B8E
:100730009D4FFC0180810E9463068B838B818823FF
:1007400011F08B810DC089819A8101969A838983EA
:1007500089819A818115944040F30E948F0680E040
:100760000F900F900F900F90DF91CF910895CF933E
:10077000DF93CDB7DEB740E054E060E070E08CE49A
:1007800092E00E94040C0000DF91CF910895CF9376
:10079000DF9300D0CDB7DEB789836A838981282FA4
:1007A00030E08A81882F90E09695982F882797953A
:1007B0008795820F931F90936406809363060000D1
:1007C0000F900F90DF91CF910895CF93DF9300D0DA
:1007D0001F92CDB7DEB78091630690916406880FB3
:1007E000892F881F990B9195898380916306909139
:1007F0006406982F8981879588278795292F281B3C
:10080000822F8A838A818A5F8B838B818823BCF4C1
:100810008981883010F081E013C08981863078F4B6
:1008200089818F5F89838981882F90E09695982FA1
:10083000882797958795909364068093630680E058
:100840000F900F900F90DF91CF910895CF93DF938A
:1008500000D000D01F92CDB7DEB78D8319820E94E1
:10086000E503813081F581E03BC020916306309142
:100870006406C901019690936406809363068D8196
:10088000882F90E0AC0140525109898191E0980F86
:100890009983682F70E0CA01880F991F880F991FEC
:1008A000840F951F860F971F8C549F4F9B838A83BD
:1008B0008A819B81FC0184918C834C81C901845B7A
:1008C0009D4FFC0140838981853078F280916306D9
:1008D000909164060196909364068093630680E08D
:1008E0000F900F900F900F900F90DF91CF91089580
:1008F000CF93DF9300D000D0CDB7DEB79C838B833E
:100900001A82198210C089819A819C012F5F3F4F02
:100910003A8329839C018B819C81820F931FFC0168
:1009200080810E94260489819A812B813C81820FDB
:10093000931FFC018081882331F700000F900F90F6
:100940000F900F90DF91CF910895CF93DF9300D058
:1009500000D0CDB7DEB78B836C8319821A828B816E
:1009600088231CF08C81813410F081E043C08C819D
:1009700086958695869589838C81282F30E089819C
:10098000882F90E0880F991F880F991F880F991F53
:10099000281B390B81E090E002C0880F991F2A952F
:1009A000E2F78A838B81282F30E08981882F90E0BD
:1009B0009695982F882797958795820F931F9093E8
:1009C00064068093630680916306909164069C019F
:1009D0002F5F3F4F30936406209363069C01245B96
:1009E0003D4FF90130812A81232B845B9D4FFC010F
:1009F000208380E00F900F900F900F90DF91CF91A8
:100A00000895CF93DF93CDB7DEB72E970FB6F89446
:100A1000DEBF0FBECDBF8B876C874D872E8781E0F1
:100A200090E098878F8381E090E09A8789878C8512
:100A3000282F30E08B85882F90E0A901481B590BA7
:100A4000CA019C838B838E85282F30E08D85882F6B
:100A500090E0A901481B590BCA019E838D838B81AD
:100A60009C81992374F48B819C8191958195910946
:100A70009C838B838F819885919581959109988727
:100A80008F838D819E81992374F48D819E819195B0
:100A9000819591099E838D8389859A85919581950C
:100AA00091099A8789872D813E818B819C812817A6
:100AB0003907ECF58D819E819C01220F331F8B81BC
:100AC0009C81A901481B590BCA019A8389836D85B2
:100AD0008B850E94A50426C08F819B85890F8B87FB
:100AE00089819A81992384F089859D85890F8D87D5
:100AF0008B819C81880F991F29813A81A901481B0C
:100B0000590BCA019A8389838D819E81880F991F11
:100B100029813A81820F931F9A8389836D858B8502
:100B20000E94A5049B858C859817B1F63CC08B81EB
:100B30009C81880F991F2D813E81A901481B590B6B
:100B4000CA019A8389836D858B850E94A50427C07D
:100B500089859D85890F8D8789819A811816190647
:100B600074F08F819B85890F8B878D819E81880F83
:100B7000991F29813A81820F931F9A8389838B81E0
:100B80009C81880F991F29813A81A901481B590B23
:100B9000CA019A8389836D858B850E94A5049D85F2
:100BA0008E859817A9F680E02E960FB6F894DEBFD2
:100BB0000FBECDBFDF91CF910895CF93DF93CDB717
:100BC000DEB788EB90E022E0FC01208389EB90E027
:100BD000FC018081882F90E082709927AC014160F0
:100BE00089EB90E029EB30E0F9012081322F242FAE
:100BF000232BFC0120830000DF91CF910895CF9338
:100C0000DF93CDB7DEB789EB90E029EB30E0F90157
:100C100020812775FC0120838CEB90E024EAFC0105
:100C2000208300008CEB90E0FC0180818823D4F7C6
:100C300089EB90E0FC018081882F90E0887F9927E4
:100C4000089781F089EB90E0FC018081882F90E08B
:100C5000887F9927409731F089EB90E0FC018081F3
:100C6000887F01C080E0DF91CF910895CF93DF931B
:100C70001F92CDB7DEB789838BEB90E02981220FDD
:100C8000FC0120838CEB90E024E8FC012083000031
:100C90008CEB90E0FC0180818823D4F789EB90E015
:100CA000FC018081882F90E0887F9927489731F058
:100CB00089EB90E0FC018081887F01C080E00F908B
:100CC000DF91CF910895CF93DF931F92CDB7DEB719
:100CD00089838BEB90E02981FC0120838CEB90E0F1
:100CE00024E8FC01208300008CEB90E0FC01808173
:100CF0008823D4F789EB90E0FC018081882F90E075
:100D0000887F9927889731F089EB90E0FC018081FA
:100D1000887F01C080E00F90DF91CF910895CF933D
:100D2000DF93CDB7DEB78CEB90E024E9FC012083A4
:100D30000000DF91CF910895CF93DF93CDB7DEB759
:100D400029970FB6F894DEBF0FBECDBF998788876D
:100D500088859985FC018081882F90E0C0970A974B
:100D6000A8F480914C06853088F480914C0691E07F
:100D7000980F90934C06882F90E028853985F901CB
:100D800020818B59994FFC0120834FC0888599851C
:100D9000FC0180818A3309F03FC080914C06282FE6
:100DA00030E0CE010296A90165E676E00E940B0CC8
:100DB00080914C06882F90E09E012E5F3F4F820F5E
:100DC000931FFC011082CE0102964AE050E060E0E1
:100DD00070E00E94060BDC01CB0190936E068093BD
:100DE0006D0610924C0619820AC08981882F90E006
:100DF0008B59994FFC01108289818F5F898389818A
:100E0000853098F380916D0690916E06892B69F07C
:100E100081E080934E0609C081E080934D0688856D
:100E20009985FC01808180936C06000029960FB69D
:100E3000F894DEBF0FBECDBFDF91CF910895CF9361
:100E4000DF9300D000D0CDB7DEB769837A838B8380
:100E50009C8389819A81AB81BC8180934F0690935A
:100E60005006A0935106B093520681E0809353063A
:100E700000000F900F900F900F90DF91CF91089589
:100E8000CF93DF9300D0CDB7DEB79A83898380916B
:100E900054069091550601969093550680935406FA
:100EA00089819A81909357068093560681E08093BA
:100EB000580600000F900F90DF91CF910895CF93C7
:100EC000DF9300D000D000D0CDB7DEB79E838D83F6
:100ED0008D819E819C0140E050E084ED93E0DC0137
:100EE0000E94EC0ADC01CB0189839A83AB83BC832B
:100EF00089819A81AB81BC8128EE33E040E050E0EB
:100F0000BC01CD010E94CA0ADA01C90126960FB6BA
:100F1000F894DEBF0FBECDBFDF91CF910895CF9380
:100F2000DF93CDB7DEB761970FB6F894DEBF0FBE83
:100F3000CDBF8CE3898384E290E024E230E0F901C4
:100F400020812660FC01208380E090E00E948301E4
:100F500090936E0680936D0680916D0690916E065B
:100F6000892B31F080916D0690916E06019631F4D7
:100F700088EE93E090936E0680936D0680916D06E7
:100F800090916E060E945F0790936B0680936A06AD
:100F90000E94190A80916A0690916B066FE177E0D2
:100FA0000E9446090E947E090E94440A42E060E4D1
:100FB00077E080E00E94C00180916D0690916E06FE
:100FC000292F2F938F9380E591E0892F8F9380E5D0
:100FD00091E08F930E941A0C0F900F900F900F903A
:100FE00089810E94AD020E94B70324E044E06AE5D3
:100FF00080E00E94010561E087E00E94C70385E769
:1010000091E00E94780489810E947803789480910D
:101010004D068823B1F010924D0680916C06882F02
:1010200090E0292F2F938F9380E891E0892F8F9361
:1010300080E891E08F930E941A0C0F900F900F9010
:101040000F9080914E068823A9F110924E06809150
:101050006D0690916E06292F2F938F9387EB91E069
:10106000892F8F9387EB91E08F930E941A0C0F903A
:101070000F900F900F9080916D0690916E060E94D8
:101080005F0790936B0680936A0620916D063091FE
:101090006E0680E090E0B9010E949A010E949709D3
:1010A00080916A0690916B066FE177E00E94460995
:1010B0000E947E0980915306882309F454C010923F
:1010C000530680914F0690915006A0915106B09121
:1010D00052062B2F2F932A2F2F93292F2F938F9345
:1010E00080EE91E0892F8F9380EE91E08F930E94A4
:1010F0001A0C0F900F900F900F900F900F908091FF
:101100004F0690915006A0915106B09152062B2F98
:101110002F932A2F2F93292F2F938F9385EE91E0D2
:10112000892F8F9385EE91E08F93CE010296292F20
:101130002F938F930E94300C8DB79EB708960FB6F1
:10114000F894DEBF0FBECDBF63E080E00E94C7030E
:1011500089EE91E00E947804CE0102960E94780404
:1011600089810E94780380915806882309F44FCF23
:101170001092580682EF91E0892F8F9382EF91E0D1
:101180008F930E941A0C0F900F9081E192E0892FAB
:101190008F9381E192E08F930E941A0C0F900F9031
:1011A0008091540690915506292F2F938F938AE3AF
:1011B00092E0892F8F938AE392E08F930E941A0C1A
:1011C0000F900F900F900F908091540690915506BC
:1011D000292F2F938F938EE392E0892F8F938EE3A5
:1011E00092E08F93CE010A96292F2F938F930E941E
:1011F000300C0F900F900F900F900F900F9065E0B4
:1012000080E00E94C70381E492E00E947804CE014E
:101210000A960E94780489810E947803F8CECF93C1
:10122000DF9300D01F92CDB7DEB79B838A831982EC
:101230008981882F90E0880F991F880F991F805E01
:101240009E4FFC01208131818A819B8128173907BB
:1012500069F48981882F90E0880F991F880F991F62
:101260008E5D9E4FFC01808191810AC089818F5FD4
:10127000898389818530E0F2809122019091230158
:101280000F900F900F90DF91CF910895CF93DF9340
:1012900000D000D0CDB7DEB79A8389837C836B837F
:1012A00086E490E0FC01108284E490E0FC0110826E
:1012B00085E390E0FC01108280E490E00E940F0939
:1012C000482F85E490E025E430E0F9012081242BCB
:1012D000FC01208389819A8190935A068093590654
:1012E0008B819C8190935E0680935D0600000F9039
:1012F0000F900F900F90DF91CF910895CF93DF93D0
:10130000CDB7DEB78EE690E02EE630E0F901208121
:101310002160FC01208310925F06109260061092FB
:101320006106109262060000DF91CF910895CF937D
:10133000DF93CDB7DEB78EE690E02EE630E0F90120
:1013400020812E7FFC0120830000DF91CF91089542
:101350001F920F9200905F000F9211242F933F93E2
:101360004F935F936F937F938F939F93AF93BF93AD
:10137000EF93FF93CF93DF93CDB7DEB780915B06FA
:1013800090915C06019690935C0680935B06209199
:101390005B0630915C068091590690915A06281799
:1013A000390788F185E290E025E230E0F9013081EB
:1013B00026E02327FC01208310925C0610925B0636
:1013C00080915F0690916006A0916106B0916206DF
:1013D0000196A11DB11D80935F0690936006A093B6
:1013E0006106B093620620915D0630915E068091A1
:1013F0005F0690916006A0916106B0916206BC0103
:10140000CD01F901099578940000DF91CF91FF910A
:10141000EF91BF91AF919F918F917F916F915F916C
:101420004F913F912F910F9000925F000F901F906E
:101430001895CF93DF93CDB7DEB784EC90E027E625
:10144000FC01208385EC90E0FC01108280EC90E0B0
:10145000FC01108281EC90E028E1FC01208382EC09
:1014600090E026E0FC01208384E391E090937206F3
:101470008093710682E491E09093700680936F06EA
:101480000000DF91CF910895CF93DF93CDB7DEB702
:1014900081EC90E021EC30E0F90120812068FC0132
:1014A00020830000DF91CF910895CF93DF9300D088
:1014B000CDB7DEB79A838983000080EC90E0FC0111
:1014C00080818823D4F786EC90E0FC018081882F0E
:1014D00090E00F900F90DF91CF910895CF93DF931D
:1014E00000D01F92CDB7DEB789837B836A8300006B
:1014F00080EC90E0FC018081882F90E08072992739
:10150000892BB1F386EC90E02981FC01208380E0F7
:1015100090E00F900F900F90DF91CF9108951F9260
:101520000F9200905F000F9211242F933F934F93DF
:101530005F936F937F938F939F93AF93BF93EF933B
:10154000FF93CF93DF931F92CDB7DEB786EC90E089
:10155000FC0180818983CE0101960E949C0686EC65
:1015600090E02981FC01208300000F90DF91CF9152
:10157000FF91EF91BF91AF919F918F917F916F916B
:101580005F914F913F912F910F9000925F000F90CC
:101590001F901895A1E21A2EAA1BBB1BFD010DC0BE
:1015A000AA1FBB1FEE1FFF1FA217B307E407F50713
:1015B00020F0A21BB30BE40BF50B661F771F881FEF
:1015C000991F1A9469F760957095809590959B0185
:1015D000AC01BD01CF0108950E94F70AA59F900DAF
:1015E000B49F900DA49F800D911D11240895A29F7A
:1015F000B001B39FC001A39F700D811D1124911DE7
:10160000B29F700D811D1124911D0895A0E0B0E0DE
:10161000ECE0FBE00C94200F5C016B017A0161159A
:10162000710519F0FB0191838083E114F10429F025
:10163000C7010297839708F0C9C0E5012196F5011B
:101640001081812F90E00E94FB0B892B11F05E012D
:10165000F4CF1D3229F42196F501118101E007C074
:101660001B3221F4E5012296F501118100E0E1141D
:10167000F104B1F0F0E1EF16F10429F4B0C010E389
:10168000E114F10401F12AE0E216F104B1F180E184
:10169000E816F10471F0E8E0EE16F104F1F413C07D
:1016A000103341F588818F7D883549F7198122965D
:1016B0000260F0E1EF2EF12C88248A94982CA82C5B
:1016C000AFE0BA2E20C078E0E72EF12C88248A946F
:1016D000982CA82CEFE1BE2E16C06FEF7FEFCB0148
:1016E00097010F2C000C440B550B0E94CA0A4901AC
:1016F0005A0109C08AE0E82EF12C69E9862E982C5F
:10170000A82C69E1B62E40E060E070E0CB01270133
:101710000F2C000C66087708FE0150ED352E310EB7
:1017200029E0231570F42FEB210F2A3118F439EC3E
:10173000332E06C02FE9210F2A3130F529EA322E47
:10174000310E232D30E02E153F05F4F44F3FC9F044
:1017500086169706A806B90688F0A30192010E9492
:101760000F0F232D30E040E050E0620F731F841F05
:10177000951F621773078407950710F44FEF01C098
:1017800041E021961081C8CFC114D10451F0442307
:1017900011F0219703C001FF04C02297F601D18305
:1017A000C08300FF07C090958095709561957F4F2D
:1017B0008F4F9F4F4F3F79F482E290E090937606EF
:1017C000809375063FEF2FEF9FEF0DC040E030E0B4
:1017D00020E090E008C0462F372F282F04C0103398
:1017E00009F067CF5FCF642F732F822FCDB7DEB79D
:1017F000E1E10C943C0F91110C94330E803219F0FE
:1018000089508550C8F70895DC0101C06D9341509F
:101810005040E0F70895FB01DC014150504048F092
:1018200001900D920020C9F701C01D924150504017
:10183000E0F70895A0E0B0E0E0E2FCE00C942F0FA8
:10184000AE014B5F5F4FFA0161917191AF018091E1
:101850007106909172060E94520CE2E00C944B0FBC
:10186000AEE0B0E0E6E3FCE00C942D0F0D891E899C
:1018700086E08C831A8309838FEF9FE79E838D8395
:10188000AE01475E5F4F6F89788DCE0101960E9451
:10189000520CEF81F885E00FF11F10822E96E4E0E4
:1018A0000C94490FABE0B0E0E8E5FCE00C941F0FAE
:1018B0006C017B018A01FC0117821682838181FF02
:1018C000CCC1CE0101963C01F6019381F70193FD55
:1018D000859193FF81917F01882309F4BAC18532F4
:1018E00039F493FD859193FF81917F01853229F42D
:1018F000B60190E00E944C0EE7CF912C212C312CA8
:10190000FFE1F315D8F08B3279F038F4803279F0BA
:101910008332A1F4232D20611DC08D3261F080330C
:1019200069F4232D216016C0832D8260382EE32DAB
:10193000E4603E2E2AC0F32DF8601DC037FC2DC098
:1019400020ED280F2A3040F08E32B9F436FC81C1E8
:10195000232D2064322E19C036FE06C08AE0989EE0
:10196000200D1124922E11C0EAE02E9E200D11248C
:10197000222EF32DF0623F2E08C08C3621F4832DE9
:101980008068382E02C0883641F4F70193FD8591B6
:1019900093FF81917F018111B3CF982F9F7D955443
:1019A000933028F40C5F1F4F9FE399830DC083365B
:1019B00031F0833771F0833509F059C021C0F80147
:1019C000808189830E5F1F4F88248394912C53015B
:1019D00013C02801F2E04F0E511CF801A080B18025
:1019E00036FE03C0692D70E002C06FEF7FEFC501C6
:1019F0000E94410E4C018201F32DFF773F2E16C04D
:101A0000280122E0420E511CF801A080B18036FE70
:101A100003C0692D70E002C06FEF7FEFC5010E9427
:101A2000360E4C01F32DF0683F2E820133FC1BC0B3
:101A3000822D90E088169906B0F4B60180E290E01D
:101A40000E944C0E2A94F4CFF50137FC859137FEA5
:101A500081915F01B60190E00E944C0E21102A9402
:101A600021E0821A91088114910471F7E8C084364C
:101A700011F0893641F5F80137FE07C060817181A8
:101A8000828193810C5F1F4F08C060817181072E96
:101A9000000C880B990B0E5F1F4FF32DFF763F2E26
:101AA00097FF09C090958095709561957F4F8F4FF6
:101AB0009F4FF0683F2E2AE030E0A3010E94880E7D
:101AC000882E861845C0853731F4232D2F7EB22EFF
:101AD0002AE030E025C0932D997FB92E8F36C1F0D2
:101AE00018F4883579F0B5C0803719F0883721F0BF
:101AF000B0C0E92FE061BE2EB4FE0DC0FB2DF46036
:101B0000BF2E09C034FE0AC0292F2660B22E06C09F
:101B100028E030E005C020E130E002C020E132E002
:101B2000F801B7FE07C060817181828193810C5FEB
:101B30001F4F06C06081718180E090E00E5F1F4FF3
:101B4000A3010E94880E882E8618FB2DFF773F2E5A
:101B500036FE0DC0232D2E7FA22E891458F434FE9C
:101B60000BC032FC09C0832D8E7EA82E05C0B82C78
:101B7000A32C03C0B82C01C0B92CA4FE0FC0FE01D9
:101B8000E80DF11D8081803321F49A2D997EA92ED4
:101B900009C0A2FE06C0B394B39404C08A2D86780F
:101BA00009F0B394A3FC11C0A0FE06C0B21488F4DF
:101BB000280C922C9B180EC0B21460F4B60180E27F
:101BC00090E00E944C0EB394F7CFB21418F42B1887
:101BD00002C0982C212CA4FE10C0B60180E390E036
:101BE0000E944C0EA2FE17C0A1FC03C088E790E043
:101BF00002C088E590E0B6010CC08A2D867859F0C5
:101C0000A1FE02C08BE201C080E2A7FC8DE2B6011A
:101C100090E00E944C0E891438F4B60180E390E005
:101C20000E944C0E9A94F7CF8A94F301E80DF11DAF
:101C30008081B60190E00E944C0E8110F5CF2220E9
:101C400009F442CEB60180E290E00E944C0E2A9444
:101C5000F6CFF6018681978102C08FEF9FEF2B961A
:101C6000E2E10C943B0F992788270895FC01059029
:101C7000615070400110D8F7809590958E0F9F1F8E
:101C80000895FC016150704001900110D8F78095D3
:101C900090958E0F9F1F08950F931F93CF93DF93FF
:101CA000FB01238121FD03C08FEF9FEF2CC022FF9A
:101CB00016C046815781248135814217530744F469
:101CC000A081B1819D012F5F3F4F318320838C9391
:101CD000268137812F5F3F4F3783268314C08B01C6
:101CE000EC01FB010084F185E02D0995892BE1F6DB
:101CF000D80116968D919C911797019617969C93F3
:101D00008E931697CE01DF91CF911F910F91089579
:101D1000FA01AA27283051F1203181F1E8946F931C
:101D20006E7F6E5F7F4F8F4F9F4FAF4FB1E03ED0C2
:101D3000B4E03CD0670F781F891F9A1FA11D680F60
:101D4000791F8A1F911DA11D6A0F711D811D911D93
:101D5000A11D20D009F468943F912AE0269F112408
:101D60003019305D3193DEF6CF010895462F47706C
:101D7000405D4193B3E00FD0C9F7F6CF462F4F70C7
:101D8000405D4A3318F0495D31FD4052419302D025
:101D9000A9F7EACFB4E0A6959795879577956795CB
:101DA000BA95C9F700976105710508959B01AC01CB
:101DB0000A2E06945795479537952795BA95C9F7F2
:101DC000620F731F841F951FA01D0895DC01CB01B6
:101DD000FC01F999FECF06C0F2BDE1BDF89A31963B
:101DE00000B40D9241505040B8F70895A8E1B0E01A
:101DF00042E050E00C94E80E262FF999FECF1FBA6E
:101E000092BD81BD20BD0FB6F894FA9AF99A0FBE23
:101E1000019608950E94FC0E272F0C94FD0EDB0105
:101E20008F939F930E94EC0ABF91AF91A29F800D68
:101E3000911DA39F900DB29F900D112408952F9294
:101E40003F924F925F926F927F928F929F92AF924A
:101E5000BF92CF92DF92EF92FF920F931F93CF9397
:101E6000DF93CDB7DEB7CA1BDB0B0FB6F894DEBF2E
:101E70000FBECDBF09942A88398848885F846E8454
:101E80007D848C849B84AA84B984C884DF80EE809E
:101E9000FD800C811B81AA81B981CE0FD11D0FB6A7
:101EA000F894DEBF0FBECDBFED010895F894FFCFCB
:101EB000B3010000B3010000B3010000B301000052
:101EC000B3010000B3010000B3010000B301000042
:101ED00001000100080002004000030000010400AE
:101EE0000004050000000002000000006E0A00006F
:101EF000000000000001000000000000550A000082
:101F00005468652054696D657220496E74657272FB
:101F10007570742056616C7565206973203A2025B0
:101F2000646D730A006834706430313131323400CA
:101F30002563206973206E6F7420612076616C695F
:101F400064206368617261637465722E20547970D5
:101F5000652066726F6D20737461727420616761B1
:101F6000696E2021212100546865206E6577205418
:101F7000696D657220496E74657272757074205651
:101F8000616C7565206973203A2025646D730A00C1
:101F9000256C640A00256C6400542D496E74203A47
:101FA00020000A496E74657272757074206F6E201D
:101FB00045787465726E616C2050696E20302E20F9
:101FC000004E756D626572206F6620496E74657291
:101FD0007275707473206F6E2045787465726E61CF
:101FE0006C50696E2030203A200025640A00256478
:0C1FF0000045782D496E74203A20000056
:00000001FF
